{
  "contractName": "Farm01",
  "abi": [
    {
      "inputs": [
        {
          "internalType": "address",
          "name": "_factory",
          "type": "address"
        },
        {
          "internalType": "address",
          "name": "_farmGenerator",
          "type": "address"
        }
      ],
      "stateMutability": "nonpayable",
      "type": "constructor"
    },
    {
      "anonymous": false,
      "inputs": [
        {
          "indexed": true,
          "internalType": "address",
          "name": "user",
          "type": "address"
        },
        {
          "indexed": false,
          "internalType": "uint256",
          "name": "amount",
          "type": "uint256"
        }
      ],
      "name": "Deposit",
      "type": "event"
    },
    {
      "anonymous": false,
      "inputs": [
        {
          "indexed": true,
          "internalType": "address",
          "name": "user",
          "type": "address"
        },
        {
          "indexed": false,
          "internalType": "uint256",
          "name": "amount",
          "type": "uint256"
        }
      ],
      "name": "EmergencyWithdraw",
      "type": "event"
    },
    {
      "anonymous": false,
      "inputs": [
        {
          "indexed": true,
          "internalType": "address",
          "name": "user",
          "type": "address"
        },
        {
          "indexed": false,
          "internalType": "uint256",
          "name": "amount",
          "type": "uint256"
        }
      ],
      "name": "Withdraw",
      "type": "event"
    },
    {
      "inputs": [],
      "name": "factory",
      "outputs": [
        {
          "internalType": "contract IFarmFactory",
          "name": "",
          "type": "address"
        }
      ],
      "stateMutability": "view",
      "type": "function"
    },
    {
      "inputs": [],
      "name": "farmGenerator",
      "outputs": [
        {
          "internalType": "address",
          "name": "",
          "type": "address"
        }
      ],
      "stateMutability": "view",
      "type": "function"
    },
    {
      "inputs": [],
      "name": "farmInfo",
      "outputs": [
        {
          "internalType": "contract IERC20",
          "name": "lpToken",
          "type": "address"
        },
        {
          "internalType": "contract IERC20",
          "name": "rewardToken",
          "type": "address"
        },
        {
          "internalType": "uint256",
          "name": "startBlock",
          "type": "uint256"
        },
        {
          "internalType": "uint256",
          "name": "blockReward",
          "type": "uint256"
        },
        {
          "internalType": "uint256",
          "name": "bonusEndBlock",
          "type": "uint256"
        },
        {
          "internalType": "uint256",
          "name": "bonus",
          "type": "uint256"
        },
        {
          "internalType": "uint256",
          "name": "endBlock",
          "type": "uint256"
        },
        {
          "internalType": "uint256",
          "name": "lastRewardBlock",
          "type": "uint256"
        },
        {
          "internalType": "uint256",
          "name": "accRewardPerShare",
          "type": "uint256"
        },
        {
          "internalType": "uint256",
          "name": "farmableSupply",
          "type": "uint256"
        },
        {
          "internalType": "uint256",
          "name": "numFarmers",
          "type": "uint256"
        }
      ],
      "stateMutability": "view",
      "type": "function"
    },
    {
      "inputs": [],
      "name": "farmType",
      "outputs": [
        {
          "internalType": "uint256",
          "name": "",
          "type": "uint256"
        }
      ],
      "stateMutability": "view",
      "type": "function"
    },
    {
      "inputs": [
        {
          "internalType": "address",
          "name": "",
          "type": "address"
        }
      ],
      "name": "userInfo",
      "outputs": [
        {
          "internalType": "uint256",
          "name": "amount",
          "type": "uint256"
        },
        {
          "internalType": "uint256",
          "name": "rewardDebt",
          "type": "uint256"
        }
      ],
      "stateMutability": "view",
      "type": "function"
    },
    {
      "inputs": [
        {
          "internalType": "contract IERC20",
          "name": "_rewardToken",
          "type": "address"
        },
        {
          "internalType": "uint256",
          "name": "_amount",
          "type": "uint256"
        },
        {
          "internalType": "contract IERC20",
          "name": "_lpToken",
          "type": "address"
        },
        {
          "internalType": "uint256",
          "name": "_blockReward",
          "type": "uint256"
        },
        {
          "internalType": "uint256",
          "name": "_startBlock",
          "type": "uint256"
        },
        {
          "internalType": "uint256",
          "name": "_endBlock",
          "type": "uint256"
        },
        {
          "internalType": "uint256",
          "name": "_bonusEndBlock",
          "type": "uint256"
        },
        {
          "internalType": "uint256",
          "name": "_bonus",
          "type": "uint256"
        }
      ],
      "name": "init",
      "outputs": [],
      "stateMutability": "nonpayable",
      "type": "function"
    },
    {
      "inputs": [
        {
          "internalType": "uint256",
          "name": "_from_block",
          "type": "uint256"
        },
        {
          "internalType": "uint256",
          "name": "_to",
          "type": "uint256"
        }
      ],
      "name": "getMultiplier",
      "outputs": [
        {
          "internalType": "uint256",
          "name": "",
          "type": "uint256"
        }
      ],
      "stateMutability": "view",
      "type": "function"
    },
    {
      "inputs": [
        {
          "internalType": "address",
          "name": "_user",
          "type": "address"
        }
      ],
      "name": "pendingReward",
      "outputs": [
        {
          "internalType": "uint256",
          "name": "",
          "type": "uint256"
        }
      ],
      "stateMutability": "view",
      "type": "function"
    },
    {
      "inputs": [],
      "name": "updatePool",
      "outputs": [],
      "stateMutability": "nonpayable",
      "type": "function"
    },
    {
      "inputs": [
        {
          "internalType": "uint256",
          "name": "_amount",
          "type": "uint256"
        }
      ],
      "name": "deposit",
      "outputs": [],
      "stateMutability": "nonpayable",
      "type": "function"
    },
    {
      "inputs": [
        {
          "internalType": "uint256",
          "name": "_amount",
          "type": "uint256"
        }
      ],
      "name": "withdraw",
      "outputs": [],
      "stateMutability": "nonpayable",
      "type": "function"
    },
    {
      "inputs": [],
      "name": "emergencyWithdraw",
      "outputs": [],
      "stateMutability": "nonpayable",
      "type": "function"
    }
  ],
  "bytecode": "0x6080604052600160005534801561001557600080fd5b506040516120193803806120198339818101604052604081101561003857600080fd5b81019080805190602001909291908051906020019092919050505081600160006101000a81548173ffffffffffffffffffffffffffffffffffffffff021916908373ffffffffffffffffffffffffffffffffffffffff16021790555080600260006101000a81548173ffffffffffffffffffffffffffffffffffffffff021916908373ffffffffffffffffffffffffffffffffffffffff1602179055505050611f33806100e66000396000f3fe608060405234801561001057600080fd5b50600436106100b45760003560e01c8063b20268c211610071578063b20268c214610274578063b6b55f2514610315578063c45a015514610343578063db2e21bc14610377578063e3161ddd14610381578063f40f0f521461038b576100b4565b80631959a002146100b95780631d49d66c146101185780632dd99996146101a85780632e1a7d4d146101dc5780632ebed9ec1461020a5780638dbb1e3a14610228575b600080fd5b6100fb600480360360208110156100cf57600080fd5b81019080803573ffffffffffffffffffffffffffffffffffffffff1690602001909291905050506103e3565b604051808381526020018281526020019250505060405180910390f35b610120610407565b604051808c73ffffffffffffffffffffffffffffffffffffffff1681526020018b73ffffffffffffffffffffffffffffffffffffffff1681526020018a81526020018981526020018881526020018781526020018681526020018581526020018481526020018381526020018281526020019b50505050505050505050505060405180910390f35b6101b061048f565b604051808273ffffffffffffffffffffffffffffffffffffffff16815260200191505060405180910390f35b610208600480360360208110156101f257600080fd5b81019080803590602001909291905050506104b5565b005b6102126107a0565b6040518082815260200191505060405180910390f35b61025e6004803603604081101561023e57600080fd5b8101908080359060200190929190803590602001909291905050506107a6565b6040518082815260200191505060405180910390f35b610313600480360361010081101561028b57600080fd5b81019080803573ffffffffffffffffffffffffffffffffffffffff16906020019092919080359060200190929190803573ffffffffffffffffffffffffffffffffffffffff16906020019092919080359060200190929190803590602001909291908035906020019092919080359060200190929190803590602001909291905050506108ac565b005b6103416004803603602081101561032b57600080fd5b8101908080359060200190929190505050610a71565b005b61034b610cf2565b604051808273ffffffffffffffffffffffffffffffffffffffff16815260200191505060405180910390f35b61037f610d18565b005b610389610edf565b005b6103cd600480360360208110156103a157600080fd5b81019080803573ffffffffffffffffffffffffffffffffffffffff16906020019092919050505061108c565b6040518082815260200191505060405180910390f35b600e6020528060005260406000206000915090508060000154908060010154905082565b60038060000160009054906101000a900473ffffffffffffffffffffffffffffffffffffffff16908060010160009054906101000a900473ffffffffffffffffffffffffffffffffffffffff169080600201549080600301549080600401549080600501549080600601549080600701549080600801549080600901549080600a015490508b565b600260009054906101000a900473ffffffffffffffffffffffffffffffffffffffff1681565b6000600e60003373ffffffffffffffffffffffffffffffffffffffff1673ffffffffffffffffffffffffffffffffffffffff16815260200190815260200160002090508181600001541015610572576040517f08c379a000000000000000000000000000000000000000000000000000000000815260040180806020018281038252600c8152602001807f494e53554646494349454e54000000000000000000000000000000000000000081525060200191505060405180910390fd5b61057a610edf565b81816000015414801561058d5750600082115b1561064c57600160009054906101000a900473ffffffffffffffffffffffffffffffffffffffff1673ffffffffffffffffffffffffffffffffffffffff166376cb2554336040518263ffffffff1660e01b8152600401808273ffffffffffffffffffffffffffffffffffffffff168152602001915050600060405180830381600087803b15801561061d57600080fd5b505af1158015610631573d6000803e3d6000fd5b505050506003600a0160008154809291906001900391905055505b6000610697826001015461068964e8d4a5100061067b600360080154876000015461127c90919063ffffffff16565b61130290919063ffffffff16565b61134c90919063ffffffff16565b90506106a33382611396565b6106ba83836000015461134c90919063ffffffff16565b82600001819055506106f564e8d4a510006106e7600360080154856000015461127c90919063ffffffff16565b61130290919063ffffffff16565b826001018190555061074d3384600360000160009054906101000a900473ffffffffffffffffffffffffffffffffffffffff1673ffffffffffffffffffffffffffffffffffffffff166116189092919063ffffffff16565b3373ffffffffffffffffffffffffffffffffffffffff167f884edad9ce6fa2440d8a54cc123490eb96d2768479d49ff9c7366125a9424364846040518082815260200191505060405180910390a2505050565b60005481565b6000806003600201548410156107c1576003600201546107c3565b835b9050600083600360060154116107de576003600601546107e0565b835b905060036004015481116108215761081860036005015461080a848461134c90919063ffffffff16565b61127c90919063ffffffff16565b925050506108a6565b600360040154821061084957610840828261134c90919063ffffffff16565b925050506108a6565b6108a16108646003600401548361134c90919063ffffffff16565b6108936003600501546108858660036004015461134c90919063ffffffff16565b61127c90919063ffffffff16565b6116ba90919063ffffffff16565b925050505b92915050565b600260009054906101000a900473ffffffffffffffffffffffffffffffffffffffff1673ffffffffffffffffffffffffffffffffffffffff163373ffffffffffffffffffffffffffffffffffffffff161461096f576040517f08c379a00000000000000000000000000000000000000000000000000000000081526004018080602001828103825260098152602001807f464f5242494444454e000000000000000000000000000000000000000000000081525060200191505060405180910390fd5b61097b8833308a611742565b87600360010160006101000a81548173ffffffffffffffffffffffffffffffffffffffff021916908373ffffffffffffffffffffffffffffffffffffffff16021790555083600360020181905550846003800181905550816003600401819055508060036005018190555060008443116109f557846109f7565b435b905086600360000160006101000a81548173ffffffffffffffffffffffffffffffffffffffff021916908373ffffffffffffffffffffffffffffffffffffffff1602179055508060036007018190555060006003600801819055508360036006018190555087600360090181905550505050505050505050565b6000600e60003373ffffffffffffffffffffffffffffffffffffffff1673ffffffffffffffffffffffffffffffffffffffff1681526020019081526020016000209050610abc610edf565b600081600001541115610b22576000610b148260010154610b0664e8d4a51000610af8600360080154876000015461127c90919063ffffffff16565b61130290919063ffffffff16565b61134c90919063ffffffff16565b9050610b203382611396565b505b60008160000154148015610b365750600082115b15610bf457600160009054906101000a900473ffffffffffffffffffffffffffffffffffffffff1673ffffffffffffffffffffffffffffffffffffffff166379cdf99b336040518263ffffffff1660e01b8152600401808273ffffffffffffffffffffffffffffffffffffffff168152602001915050600060405180830381600087803b158015610bc657600080fd5b505af1158015610bda573d6000803e3d6000fd5b505050506003600a01600081548092919060010191905055505b610c46333084600360000160009054906101000a900473ffffffffffffffffffffffffffffffffffffffff1673ffffffffffffffffffffffffffffffffffffffff16611927909392919063ffffffff16565b610c5d8282600001546116ba90919063ffffffff16565b8160000181905550610c9864e8d4a51000610c8a600360080154846000015461127c90919063ffffffff16565b61130290919063ffffffff16565b81600101819055503373ffffffffffffffffffffffffffffffffffffffff167fe1fffcc4923d04b559f4d29a8bfc6cda04eb5b0d3c460751c2402c5c5cc9109c836040518082815260200191505060405180910390a25050565b600160009054906101000a900473ffffffffffffffffffffffffffffffffffffffff1681565b6000600e60003373ffffffffffffffffffffffffffffffffffffffff1673ffffffffffffffffffffffffffffffffffffffff1681526020019081526020016000209050610daf338260000154600360000160009054906101000a900473ffffffffffffffffffffffffffffffffffffffff1673ffffffffffffffffffffffffffffffffffffffff166116189092919063ffffffff16565b3373ffffffffffffffffffffffffffffffffffffffff167f5fafa99d0643513820be26656b45130b01e1c03062e1266bf36f88cbd3bd969582600001546040518082815260200191505060405180910390a2600081600001541115610ec857600160009054906101000a900473ffffffffffffffffffffffffffffffffffffffff1673ffffffffffffffffffffffffffffffffffffffff166376cb2554336040518263ffffffff1660e01b8152600401808273ffffffffffffffffffffffffffffffffffffffff168152602001915050600060405180830381600087803b158015610e9957600080fd5b505af1158015610ead573d6000803e3d6000fd5b505050506003600a0160008154809291906001900391905055505b600081600001819055506000816001018190555050565b6003600701544311610ef05761108a565b6000600360000160009054906101000a900473ffffffffffffffffffffffffffffffffffffffff1673ffffffffffffffffffffffffffffffffffffffff166370a08231306040518263ffffffff1660e01b8152600401808273ffffffffffffffffffffffffffffffffffffffff16815260200191505060206040518083038186803b158015610f7e57600080fd5b505afa158015610f92573d6000803e3d6000fd5b505050506040513d6020811015610fa857600080fd5b810190808051906020019092919050505090506000811415610fec576003600601544310610fdb57600360060154610fdd565b435b6003600701819055505061108a565b6000610ffd600360070154436107a6565b9050600061101860038001548361127c90919063ffffffff16565b905061105b6110478461103964e8d4a510008561127c90919063ffffffff16565b61130290919063ffffffff16565b6003600801546116ba90919063ffffffff16565b600360080181905550600360060154431061107b5760036006015461107d565b435b6003600701819055505050505b565b600080600e60008473ffffffffffffffffffffffffffffffffffffffff1673ffffffffffffffffffffffffffffffffffffffff1681526020019081526020016000209050600060036008015490506000600360000160009054906101000a900473ffffffffffffffffffffffffffffffffffffffff1673ffffffffffffffffffffffffffffffffffffffff166370a08231306040518263ffffffff1660e01b8152600401808273ffffffffffffffffffffffffffffffffffffffff16815260200191505060206040518083038186803b15801561116857600080fd5b505afa15801561117c573d6000803e3d6000fd5b505050506040513d602081101561119257600080fd5b81019080805190602001909291905050509050600360070154431180156111ba575060008114155b1561122e5760006111d0600360070154436107a6565b905060006111eb60038001548361127c90919063ffffffff16565b905061122961121a8461120c64e8d4a510008561127c90919063ffffffff16565b61130290919063ffffffff16565b856116ba90919063ffffffff16565b935050505b611272836001015461126464e8d4a5100061125686886000015461127c90919063ffffffff16565b61130290919063ffffffff16565b61134c90919063ffffffff16565b9350505050919050565b60008083141561128f57600090506112fc565b60008284029050828482816112a057fe5b04146112f7576040517f08c379a0000000000000000000000000000000000000000000000000000000008152600401808060200182810382526021815260200180611e8f6021913960400191505060405180910390fd5b809150505b92915050565b600061134483836040518060400160405280601a81526020017f536166654d6174683a206469766973696f6e206279207a65726f0000000000008152506119e8565b905092915050565b600061138e83836040518060400160405280601e81526020017f536166654d6174683a207375627472616374696f6e206f766572666c6f770000815250611aae565b905092915050565b6000600360010160009054906101000a900473ffffffffffffffffffffffffffffffffffffffff1673ffffffffffffffffffffffffffffffffffffffff166370a08231306040518263ffffffff1660e01b8152600401808273ffffffffffffffffffffffffffffffffffffffff16815260200191505060206040518083038186803b15801561142457600080fd5b505afa158015611438573d6000803e3d6000fd5b505050506040513d602081101561144e57600080fd5b810190808051906020019092919050505090508082111561154057600360010160009054906101000a900473ffffffffffffffffffffffffffffffffffffffff1673ffffffffffffffffffffffffffffffffffffffff1663a9059cbb84836040518363ffffffff1660e01b8152600401808373ffffffffffffffffffffffffffffffffffffffff16815260200182815260200192505050602060405180830381600087803b1580156114ff57600080fd5b505af1158015611513573d6000803e3d6000fd5b505050506040513d602081101561152957600080fd5b810190808051906020019092919050505050611613565b600360010160009054906101000a900473ffffffffffffffffffffffffffffffffffffffff1673ffffffffffffffffffffffffffffffffffffffff1663a9059cbb84846040518363ffffffff1660e01b8152600401808373ffffffffffffffffffffffffffffffffffffffff16815260200182815260200192505050602060405180830381600087803b1580156115d657600080fd5b505af11580156115ea573d6000803e3d6000fd5b505050506040513d602081101561160057600080fd5b8101908080519060200190929190505050505b505050565b6116b58363a9059cbb60e01b8484604051602401808373ffffffffffffffffffffffffffffffffffffffff16815260200182815260200192505050604051602081830303815290604052907bffffffffffffffffffffffffffffffffffffffffffffffffffffffff19166020820180517bffffffffffffffffffffffffffffffffffffffffffffffffffffffff8381831617835250505050611b6e565b505050565b600080828401905083811015611738576040517f08c379a000000000000000000000000000000000000000000000000000000000815260040180806020018281038252601b8152602001807f536166654d6174683a206164646974696f6e206f766572666c6f77000000000081525060200191505060405180910390fd5b8091505092915050565b600060608573ffffffffffffffffffffffffffffffffffffffff166323b872dd868686604051602401808473ffffffffffffffffffffffffffffffffffffffff1681526020018373ffffffffffffffffffffffffffffffffffffffff16815260200182815260200193505050506040516020818303038152906040529060e01b6020820180517bffffffffffffffffffffffffffffffffffffffffffffffffffffffff83818316178352505050506040518082805190602001908083835b602083106118235780518252602082019150602081019050602083039250611800565b6001836020036101000a0380198251168184511680821785525050505050509050019150506000604051808303816000865af19150503d8060008114611885576040519150601f19603f3d011682016040523d82523d6000602084013e61188a565b606091505b50915091508180156118ca57506000815114806118c957508080602001905160208110156118b757600080fd5b81019080805190602001909291905050505b5b61191f576040517f08c379a0000000000000000000000000000000000000000000000000000000008152600401808060200182810382526024815260200180611eda6024913960400191505060405180910390fd5b505050505050565b6119e2846323b872dd60e01b858585604051602401808473ffffffffffffffffffffffffffffffffffffffff1681526020018373ffffffffffffffffffffffffffffffffffffffff1681526020018281526020019350505050604051602081830303815290604052907bffffffffffffffffffffffffffffffffffffffffffffffffffffffff19166020820180517bffffffffffffffffffffffffffffffffffffffffffffffffffffffff8381831617835250505050611b6e565b50505050565b60008083118290611a94576040517f08c379a00000000000000000000000000000000000000000000000000000000081526004018080602001828103825283818151815260200191508051906020019080838360005b83811015611a59578082015181840152602081019050611a3e565b50505050905090810190601f168015611a865780820380516001836020036101000a031916815260200191505b509250505060405180910390fd5b506000838581611aa057fe5b049050809150509392505050565b6000838311158290611b5b576040517f08c379a00000000000000000000000000000000000000000000000000000000081526004018080602001828103825283818151815260200191508051906020019080838360005b83811015611b20578082015181840152602081019050611b05565b50505050905090810190601f168015611b4d5780820380516001836020036101000a031916815260200191505b509250505060405180910390fd5b5060008385039050809150509392505050565b6060611bd0826040518060400160405280602081526020017f5361666545524332303a206c6f772d6c6576656c2063616c6c206661696c65648152508573ffffffffffffffffffffffffffffffffffffffff16611c5d9092919063ffffffff16565b9050600081511115611c5857808060200190516020811015611bf157600080fd5b8101908080519060200190929190505050611c57576040517f08c379a000000000000000000000000000000000000000000000000000000000815260040180806020018281038252602a815260200180611eb0602a913960400191505060405180910390fd5b5b505050565b6060611c6c8484600085611c75565b90509392505050565b6060611c8085611e7b565b611cf2576040517f08c379a000000000000000000000000000000000000000000000000000000000815260040180806020018281038252601d8152602001807f416464726573733a2063616c6c20746f206e6f6e2d636f6e747261637400000081525060200191505060405180910390fd5b600060608673ffffffffffffffffffffffffffffffffffffffff1685876040518082805190602001908083835b60208310611d425780518252602082019150602081019050602083039250611d1f565b6001836020036101000a03801982511681845116808217855250505050505090500191505060006040518083038185875af1925050503d8060008114611da4576040519150601f19603f3d011682016040523d82523d6000602084013e611da9565b606091505b50915091508115611dbe578092505050611e73565b600081511115611dd15780518082602001fd5b836040517f08c379a00000000000000000000000000000000000000000000000000000000081526004018080602001828103825283818151815260200191508051906020019080838360005b83811015611e38578082015181840152602081019050611e1d565b50505050905090810190601f168015611e655780820380516001836020036101000a031916815260200191505b509250505060405180910390fd5b949350505050565b600080823b90506000811191505091905056fe536166654d6174683a206d756c7469706c69636174696f6e206f766572666c6f775361666545524332303a204552433230206f7065726174696f6e20646964206e6f7420737563636565645472616e7366657248656c7065723a205452414e534645525f46524f4d5f4641494c4544a26469706673582212202a54a5b6f1773d2d49542e58eb672ad2d7f2819a6ec96d2595215d342fb6495e64736f6c634300060c0033",
  "immutableReferences": {},
  "source": "\r\n// File: SafeMath.sol\r\n\r\n\r\n\r\n// From https://github.com/OpenZeppelin/openzeppelin-contracts/blob/master/contracts/math/SafeMath.sol\r\n// Subject to the MIT license.\r\n\r\npragma solidity ^0.6.0;\r\n\r\n/**\r\n * @dev Wrappers over Solidity's arithmetic operations with added overflow\r\n * checks.\r\n *\r\n * Arithmetic operations in Solidity wrap on overflow. This can easily result\r\n * in bugs, because programmers usually assume that an overflow raises an\r\n * error, which is the standard behavior in high level programming languages.\r\n * `SafeMath` restores this intuition by reverting the transaction when an\r\n * operation overflows.\r\n *\r\n * Using this library instead of the unchecked operations eliminates an entire\r\n * class of bugs, so it's recommended to use it always.\r\n */\r\nlibrary SafeMath {\r\n    /**\r\n     * @dev Returns the addition of two unsigned integers, reverting on\r\n     * overflow.\r\n     *\r\n     * Counterpart to Solidity's `+` operator.\r\n     *\r\n     * Requirements:\r\n     *\r\n     * - Addition cannot overflow.\r\n     */\r\n    function add(uint256 a, uint256 b) internal pure returns (uint256) {\r\n        uint256 c = a + b;\r\n        require(c >= a, \"SafeMath: addition overflow\");\r\n\r\n        return c;\r\n    }\r\n\r\n    /**\r\n     * @dev Returns the subtraction of two unsigned integers, reverting on\r\n     * overflow (when the result is negative).\r\n     *\r\n     * Counterpart to Solidity's `-` operator.\r\n     *\r\n     * Requirements:\r\n     *\r\n     * - Subtraction cannot overflow.\r\n     */\r\n    function sub(uint256 a, uint256 b) internal pure returns (uint256) {\r\n        return sub(a, b, \"SafeMath: subtraction overflow\");\r\n    }\r\n\r\n    /**\r\n     * @dev Returns the subtraction of two unsigned integers, reverting with custom message on\r\n     * overflow (when the result is negative).\r\n     *\r\n     * Counterpart to Solidity's `-` operator.\r\n     *\r\n     * Requirements:\r\n     *\r\n     * - Subtraction cannot overflow.\r\n     */\r\n    function sub(uint256 a, uint256 b, string memory errorMessage) internal pure returns (uint256) {\r\n        require(b <= a, errorMessage);\r\n        uint256 c = a - b;\r\n\r\n        return c;\r\n    }\r\n\r\n    /**\r\n     * @dev Returns the multiplication of two unsigned integers, reverting on\r\n     * overflow.\r\n     *\r\n     * Counterpart to Solidity's `*` operator.\r\n     *\r\n     * Requirements:\r\n     *\r\n     * - Multiplication cannot overflow.\r\n     */\r\n    function mul(uint256 a, uint256 b) internal pure returns (uint256) {\r\n        // Gas optimization: this is cheaper than requiring 'a' not being zero, but the\r\n        // benefit is lost if 'b' is also tested.\r\n        // See: https://github.com/OpenZeppelin/openzeppelin-contracts/pull/522\r\n        if (a == 0) {\r\n            return 0;\r\n        }\r\n\r\n        uint256 c = a * b;\r\n        require(c / a == b, \"SafeMath: multiplication overflow\");\r\n\r\n        return c;\r\n    }\r\n\r\n    /**\r\n     * @dev Returns the integer division of two unsigned integers. Reverts on\r\n     * division by zero. The result is rounded towards zero.\r\n     *\r\n     * Counterpart to Solidity's `/` operator. Note: this function uses a\r\n     * `revert` opcode (which leaves remaining gas untouched) while Solidity\r\n     * uses an invalid opcode to revert (consuming all remaining gas).\r\n     *\r\n     * Requirements:\r\n     *\r\n     * - The divisor cannot be zero.\r\n     */\r\n    function div(uint256 a, uint256 b) internal pure returns (uint256) {\r\n        return div(a, b, \"SafeMath: division by zero\");\r\n    }\r\n\r\n    /**\r\n     * @dev Returns the integer division of two unsigned integers. Reverts with custom message on\r\n     * division by zero. The result is rounded towards zero.\r\n     *\r\n     * Counterpart to Solidity's `/` operator. Note: this function uses a\r\n     * `revert` opcode (which leaves remaining gas untouched) while Solidity\r\n     * uses an invalid opcode to revert (consuming all remaining gas).\r\n     *\r\n     * Requirements:\r\n     *\r\n     * - The divisor cannot be zero.\r\n     */\r\n    function div(uint256 a, uint256 b, string memory errorMessage) internal pure returns (uint256) {\r\n        require(b > 0, errorMessage);\r\n        uint256 c = a / b;\r\n        // assert(a == b * c + a % b); // There is no case in which this doesn't hold\r\n\r\n        return c;\r\n    }\r\n\r\n    /**\r\n     * @dev Returns the remainder of dividing two unsigned integers. (unsigned integer modulo),\r\n     * Reverts when dividing by zero.\r\n     *\r\n     * Counterpart to Solidity's `%` operator. This function uses a `revert`\r\n     * opcode (which leaves remaining gas untouched) while Solidity uses an\r\n     * invalid opcode to revert (consuming all remaining gas).\r\n     *\r\n     * Requirements:\r\n     *\r\n     * - The divisor cannot be zero.\r\n     */\r\n    function mod(uint256 a, uint256 b) internal pure returns (uint256) {\r\n        return mod(a, b, \"SafeMath: modulo by zero\");\r\n    }\r\n\r\n    /**\r\n     * @dev Returns the remainder of dividing two unsigned integers. (unsigned integer modulo),\r\n     * Reverts with custom message when dividing by zero.\r\n     *\r\n     * Counterpart to Solidity's `%` operator. This function uses a `revert`\r\n     * opcode (which leaves remaining gas untouched) while Solidity uses an\r\n     * invalid opcode to revert (consuming all remaining gas).\r\n     *\r\n     * Requirements:\r\n     *\r\n     * - The divisor cannot be zero.\r\n     */\r\n    function mod(uint256 a, uint256 b, string memory errorMessage) internal pure returns (uint256) {\r\n        require(b != 0, errorMessage);\r\n        return a % b;\r\n    }\r\n}\r\n\r\n// File: IERC20.sol\r\n\r\n\r\n\r\n// From https://github.com/OpenZeppelin/openzeppelin-contracts/blob/master/contracts/token/ERC20/IERC20.sol\r\n// Subject to the MIT license.\r\n\r\npragma solidity ^0.6.0;\r\n\r\n/**\r\n * @dev Interface of the ERC20 standard as defined in the EIP.\r\n */\r\ninterface IERC20 {\r\n    /**\r\n     * @dev Returns the amount of tokens in existence.\r\n     */\r\n    function totalSupply() external view returns (uint256);\r\n\r\n    /**\r\n     * @dev Returns the amount of tokens owned by `account`.\r\n     */\r\n    function balanceOf(address account) external view returns (uint256);\r\n\r\n    /**\r\n     * @dev Moves `amount` tokens from the caller's account to `recipient`.\r\n     *\r\n     * Returns a boolean value indicating whether the operation succeeded.\r\n     *\r\n     * Emits a {Transfer} event.\r\n     */\r\n    function transfer(address recipient, uint256 amount) external returns (bool);\r\n\r\n    /**\r\n     * @dev Returns the remaining number of tokens that `spender` will be\r\n     * allowed to spend on behalf of `owner` through {transferFrom}. This is\r\n     * zero by default.\r\n     *\r\n     * This value changes when {approve} or {transferFrom} are called.\r\n     */\r\n    function allowance(address owner, address spender) external view returns (uint256);\r\n\r\n    /**\r\n     * @dev Sets `amount` as the allowance of `spender` over the caller's tokens.\r\n     *\r\n     * Returns a boolean value indicating whether the operation succeeded.\r\n     *\r\n     * IMPORTANT: Beware that changing an allowance with this method brings the risk\r\n     * that someone may use both the old and the new allowance by unfortunate\r\n     * transaction ordering. One possible solution to mitigate this race\r\n     * condition is to first reduce the spender's allowance to 0 and set the\r\n     * desired value afterwards:\r\n     * https://github.com/ethereum/EIPs/issues/20#issuecomment-263524729\r\n     *\r\n     * Emits an {Approval} event.\r\n     */\r\n    function approve(address spender, uint256 amount) external returns (bool);\r\n\r\n    /**\r\n     * @dev Moves `amount` tokens from `sender` to `recipient` using the\r\n     * allowance mechanism. `amount` is then deducted from the caller's\r\n     * allowance.\r\n     *\r\n     * Returns a boolean value indicating whether the operation succeeded.\r\n     *\r\n     * Emits a {Transfer} event.\r\n     */\r\n    function transferFrom(address sender, address recipient, uint256 amount) external returns (bool);\r\n\r\n    /**\r\n     * @dev Emitted when `value` tokens are moved from one account (`from`) to\r\n     * another (`to`).\r\n     *\r\n     * Note that `value` may be zero.\r\n     */\r\n    event Transfer(address indexed from, address indexed to, uint256 value);\r\n\r\n    /**\r\n     * @dev Emitted when the allowance of a `spender` for an `owner` is set by\r\n     * a call to {approve}. `value` is the new allowance.\r\n     */\r\n    event Approval(address indexed owner, address indexed spender, uint256 value);\r\n}\r\n\r\n// File: Address.sol\r\n\r\n\r\n\r\n// From https://github.com/OpenZeppelin/openzeppelin-contracts/blob/master/contracts/utils/Address.sol\r\n// Subject to the MIT license.\r\n\r\npragma solidity ^0.6.2;\r\n\r\n/**\r\n * @dev Collection of functions related to the address type\r\n */\r\nlibrary Address {\r\n    /**\r\n     * @dev Returns true if `account` is a contract.\r\n     *\r\n     * [IMPORTANT]\r\n     * ====\r\n     * It is unsafe to assume that an address for which this function returns\r\n     * false is an externally-owned account (EOA) and not a contract.\r\n     *\r\n     * Among others, `isContract` will return false for the following\r\n     * types of addresses:\r\n     *\r\n     *  - an externally-owned account\r\n     *  - a contract in construction\r\n     *  - an address where a contract will be created\r\n     *  - an address where a contract lived, but was destroyed\r\n     * ====\r\n     */\r\n    function isContract(address account) internal view returns (bool) {\r\n        // This method relies in extcodesize, which returns 0 for contracts in\r\n        // construction, since the code is only stored at the end of the\r\n        // constructor execution.\r\n\r\n        uint256 size;\r\n        // solhint-disable-next-line no-inline-assembly\r\n        assembly { size := extcodesize(account) }\r\n        return size > 0;\r\n    }\r\n\r\n    /**\r\n     * @dev Replacement for Solidity's `transfer`: sends `amount` wei to\r\n     * `recipient`, forwarding all available gas and reverting on errors.\r\n     *\r\n     * https://eips.ethereum.org/EIPS/eip-1884[EIP1884] increases the gas cost\r\n     * of certain opcodes, possibly making contracts go over the 2300 gas limit\r\n     * imposed by `transfer`, making them unable to receive funds via\r\n     * `transfer`. {sendValue} removes this limitation.\r\n     *\r\n     * https://diligence.consensys.net/posts/2019/09/stop-using-soliditys-transfer-now/[Learn more].\r\n     *\r\n     * IMPORTANT: because control is transferred to `recipient`, care must be\r\n     * taken to not create reentrancy vulnerabilities. Consider using\r\n     * {ReentrancyGuard} or the\r\n     * https://solidity.readthedocs.io/en/v0.5.11/security-considerations.html#use-the-checks-effects-interactions-pattern[checks-effects-interactions pattern].\r\n     */\r\n    function sendValue(address payable recipient, uint256 amount) internal {\r\n        require(address(this).balance >= amount, \"Address: insufficient balance\");\r\n\r\n        // solhint-disable-next-line avoid-low-level-calls, avoid-call-value\r\n        (bool success, ) = recipient.call{ value: amount }(\"\");\r\n        require(success, \"Address: unable to send value, recipient may have reverted\");\r\n    }\r\n\r\n    /**\r\n     * @dev Performs a Solidity function call using a low level `call`. A\r\n     * plain`call` is an unsafe replacement for a function call: use this\r\n     * function instead.\r\n     *\r\n     * If `target` reverts with a revert reason, it is bubbled up by this\r\n     * function (like regular Solidity function calls).\r\n     *\r\n     * Returns the raw returned data. To convert to the expected return value,\r\n     * use https://solidity.readthedocs.io/en/latest/units-and-global-variables.html?highlight=abi.decode#abi-encoding-and-decoding-functions[`abi.decode`].\r\n     *\r\n     * Requirements:\r\n     *\r\n     * - `target` must be a contract.\r\n     * - calling `target` with `data` must not revert.\r\n     *\r\n     * _Available since v3.1._\r\n     */\r\n    function functionCall(address target, bytes memory data) internal returns (bytes memory) {\r\n      return functionCall(target, data, \"Address: low-level call failed\");\r\n    }\r\n\r\n    /**\r\n     * @dev Same as {xref-Address-functionCall-address-bytes-}[`functionCall`], but with\r\n     * `errorMessage` as a fallback revert reason when `target` reverts.\r\n     *\r\n     * _Available since v3.1._\r\n     */\r\n    function functionCall(address target, bytes memory data, string memory errorMessage) internal returns (bytes memory) {\r\n        return _functionCallWithValue(target, data, 0, errorMessage);\r\n    }\r\n\r\n    /**\r\n     * @dev Same as {xref-Address-functionCall-address-bytes-}[`functionCall`],\r\n     * but also transferring `value` wei to `target`.\r\n     *\r\n     * Requirements:\r\n     *\r\n     * - the calling contract must have an ETH balance of at least `value`.\r\n     * - the called Solidity function must be `payable`.\r\n     *\r\n     * _Available since v3.1._\r\n     */\r\n    function functionCallWithValue(address target, bytes memory data, uint256 value) internal returns (bytes memory) {\r\n        return functionCallWithValue(target, data, value, \"Address: low-level call with value failed\");\r\n    }\r\n\r\n    /**\r\n     * @dev Same as {xref-Address-functionCallWithValue-address-bytes-uint256-}[`functionCallWithValue`], but\r\n     * with `errorMessage` as a fallback revert reason when `target` reverts.\r\n     *\r\n     * _Available since v3.1._\r\n     */\r\n    function functionCallWithValue(address target, bytes memory data, uint256 value, string memory errorMessage) internal returns (bytes memory) {\r\n        require(address(this).balance >= value, \"Address: insufficient balance for call\");\r\n        return _functionCallWithValue(target, data, value, errorMessage);\r\n    }\r\n\r\n    function _functionCallWithValue(address target, bytes memory data, uint256 weiValue, string memory errorMessage) private returns (bytes memory) {\r\n        require(isContract(target), \"Address: call to non-contract\");\r\n\r\n        // solhint-disable-next-line avoid-low-level-calls\r\n        (bool success, bytes memory returndata) = target.call{ value: weiValue }(data);\r\n        if (success) {\r\n            return returndata;\r\n        } else {\r\n            // Look for revert reason and bubble it up if present\r\n            if (returndata.length > 0) {\r\n                // The easiest way to bubble the revert reason is using memory via assembly\r\n\r\n                // solhint-disable-next-line no-inline-assembly\r\n                assembly {\r\n                    let returndata_size := mload(returndata)\r\n                    revert(add(32, returndata), returndata_size)\r\n                }\r\n            } else {\r\n                revert(errorMessage);\r\n            }\r\n        }\r\n    }\r\n}\r\n\r\n// File: SafeERC20.sol\r\n\r\n\r\n\r\n// From https://github.com/OpenZeppelin/openzeppelin-contracts/blob/master/contracts/token/ERC20/SafeERC20.sol\r\n// Subject to the MIT license.\r\n\r\npragma solidity ^0.6.0;\r\n\r\n\r\n\r\n\r\n/**\r\n * @title SafeERC20\r\n * @dev Wrappers around ERC20 operations that throw on failure (when the token\r\n * contract returns false). Tokens that return no value (and instead revert or\r\n * throw on failure) are also supported, non-reverting calls are assumed to be\r\n * successful.\r\n * To use this library you can add a `using SafeERC20 for IERC20;` statement to your contract,\r\n * which allows you to call the safe operations as `token.safeTransfer(...)`, etc.\r\n */\r\nlibrary SafeERC20 {\r\n    using SafeMath for uint256;\r\n    using Address for address;\r\n\r\n    function safeTransfer(IERC20 token, address to, uint256 value) internal {\r\n        _callOptionalReturn(token, abi.encodeWithSelector(token.transfer.selector, to, value));\r\n    }\r\n\r\n    function safeTransferFrom(IERC20 token, address from, address to, uint256 value) internal {\r\n        _callOptionalReturn(token, abi.encodeWithSelector(token.transferFrom.selector, from, to, value));\r\n    }\r\n\r\n    /**\r\n     * @dev Deprecated. This function has issues similar to the ones found in\r\n     * {IERC20-approve}, and its usage is discouraged.\r\n     *\r\n     * Whenever possible, use {safeIncreaseAllowance} and\r\n     * {safeDecreaseAllowance} instead.\r\n     */\r\n    function safeApprove(IERC20 token, address spender, uint256 value) internal {\r\n        // safeApprove should only be called when setting an initial allowance,\r\n        // or when resetting it to zero. To increase and decrease it, use\r\n        // 'safeIncreaseAllowance' and 'safeDecreaseAllowance'\r\n        // solhint-disable-next-line max-line-length\r\n        require((value == 0) || (token.allowance(address(this), spender) == 0),\r\n            \"SafeERC20: approve from non-zero to non-zero allowance\"\r\n        );\r\n        _callOptionalReturn(token, abi.encodeWithSelector(token.approve.selector, spender, value));\r\n    }\r\n\r\n    function safeIncreaseAllowance(IERC20 token, address spender, uint256 value) internal {\r\n        uint256 newAllowance = token.allowance(address(this), spender).add(value);\r\n        _callOptionalReturn(token, abi.encodeWithSelector(token.approve.selector, spender, newAllowance));\r\n    }\r\n\r\n    function safeDecreaseAllowance(IERC20 token, address spender, uint256 value) internal {\r\n        uint256 newAllowance = token.allowance(address(this), spender).sub(value, \"SafeERC20: decreased allowance below zero\");\r\n        _callOptionalReturn(token, abi.encodeWithSelector(token.approve.selector, spender, newAllowance));\r\n    }\r\n\r\n    /**\r\n     * @dev Imitates a Solidity high-level call (i.e. a regular function call to a contract), relaxing the requirement\r\n     * on the return value: the return value is optional (but if data is returned, it must not be false).\r\n     * @param token The token targeted by the call.\r\n     * @param data The call data (encoded using abi.encode or one of its variants).\r\n     */\r\n    function _callOptionalReturn(IERC20 token, bytes memory data) private {\r\n        // We need to perform a low level call here, to bypass Solidity's return data size checking mechanism, since\r\n        // we're implementing it ourselves. We use {Address.functionCall} to perform this call, which verifies that\r\n        // the target address contains contract code and also asserts for success in the low-level call.\r\n\r\n        bytes memory returndata = address(token).functionCall(data, \"SafeERC20: low-level call failed\");\r\n        if (returndata.length > 0) { // Return data is optional\r\n            // solhint-disable-next-line max-line-length\r\n            require(abi.decode(returndata, (bool)), \"SafeERC20: ERC20 operation did not succeed\");\r\n        }\r\n    }\r\n}\r\n\r\n// File: TransferHelper.sol\r\n\r\npragma solidity 0.6.12;\r\n\r\n// helper methods for interacting with ERC20 tokens that do not consistently return true/false\r\nlibrary TransferHelper {\r\n    function safeApprove(address token, address to, uint value) internal {\r\n        (bool success, bytes memory data) = token.call(abi.encodeWithSelector(0x095ea7b3, to, value));\r\n        require(success && (data.length == 0 || abi.decode(data, (bool))), 'TransferHelper: APPROVE_FAILED');\r\n    }\r\n\r\n    function safeTransfer(address token, address to, uint value) internal {\r\n        (bool success, bytes memory data) = token.call(abi.encodeWithSelector(0xa9059cbb, to, value));\r\n        require(success && (data.length == 0 || abi.decode(data, (bool))), 'TransferHelper: TRANSFER_FAILED');\r\n    }\r\n\r\n    function safeTransferFrom(address token, address from, address to, uint value) internal {\r\n        (bool success, bytes memory data) = token.call(abi.encodeWithSelector(0x23b872dd, from, to, value));\r\n        require(success && (data.length == 0 || abi.decode(data, (bool))), 'TransferHelper: TRANSFER_FROM_FAILED');\r\n    }\r\n\r\n}\r\n\r\n// File: Farm01.sol\r\n\r\n\r\n\r\npragma solidity 0.6.12;\r\n\r\n\r\n\r\n\r\ninterface IFarmFactory {\r\n    function userEnteredFarm (address _user) external;\r\n    function userLeftFarm (address _user) external;\r\n}\r\n\r\ncontract Farm01 {\r\n    using SafeMath for uint256;\r\n    using SafeERC20 for IERC20;\r\n\r\n    /// @notice information stuct on each user than stakes LP tokens.\r\n    struct UserInfo {\r\n        uint256 amount;     // How many LP tokens the user has provided.\r\n        uint256 rewardDebt; // Reward debt.\r\n    }\r\n    \r\n    /// @notice all the settings for this farm in one struct\r\n    struct FarmInfo {\r\n        IERC20 lpToken;\r\n        IERC20 rewardToken;\r\n        uint256 startBlock;\r\n        uint256 blockReward;\r\n        uint256 bonusEndBlock;\r\n        uint256 bonus;\r\n        uint256 endBlock;\r\n        uint256 lastRewardBlock;  // Last block number that reward distribution occurs.\r\n        uint256 accRewardPerShare; // Accumulated Rewards per share, times 1e12\r\n        uint256 farmableSupply; // set in init, total amount of tokens farmable\r\n        uint256 numFarmers;\r\n    }\r\n    \r\n    /// @notice farm type id. Useful for back-end systems to know how to read the contract (ABI) as we plan to launch multiple farm types\r\n    uint256 public farmType = 1;\r\n\r\n    IFarmFactory public factory;\r\n    address public farmGenerator;\r\n\r\n    FarmInfo public farmInfo;\r\n    \r\n    /// @notice information on each user than stakes LP tokens\r\n    mapping (address => UserInfo) public userInfo;\r\n\r\n    event Deposit(address indexed user, uint256 amount);\r\n    event Withdraw(address indexed user, uint256 amount);\r\n    event EmergencyWithdraw(address indexed user, uint256 amount);\r\n\r\n    constructor(address _factory, address _farmGenerator) public {\r\n        factory = IFarmFactory(_factory);\r\n        farmGenerator = _farmGenerator;\r\n    }\r\n    \r\n    /**\r\n     * @notice initialize the farming contract. This is called only once upon farm creation and the FarmGenerator ensures the farm has the correct paramaters\r\n     */\r\n    function init (IERC20 _rewardToken, uint256 _amount, IERC20 _lpToken, uint256 _blockReward, uint256 _startBlock, uint256 _endBlock, uint256 _bonusEndBlock, uint256 _bonus) public {\r\n        require(msg.sender == address(farmGenerator), 'FORBIDDEN');\r\n\r\n        TransferHelper.safeTransferFrom(address(_rewardToken), msg.sender, address(this), _amount);\r\n        farmInfo.rewardToken = _rewardToken;\r\n        \r\n        farmInfo.startBlock = _startBlock;\r\n        farmInfo.blockReward = _blockReward;\r\n        farmInfo.bonusEndBlock = _bonusEndBlock;\r\n        farmInfo.bonus = _bonus;\r\n        \r\n        uint256 lastRewardBlock = block.number > _startBlock ? block.number : _startBlock;\r\n        farmInfo.lpToken = _lpToken;\r\n        farmInfo.lastRewardBlock = lastRewardBlock;\r\n        farmInfo.accRewardPerShare = 0;\r\n        \r\n        farmInfo.endBlock = _endBlock;\r\n        farmInfo.farmableSupply = _amount;\r\n    }\r\n\r\n    /**\r\n     * @notice Gets the reward multiplier over the given _from_block until _to block\r\n     * @param _from_block the start of the period to measure rewards for\r\n     * @param _to the end of the period to measure rewards for\r\n     * @return The weighted multiplier for the given period\r\n     */\r\n    function getMultiplier(uint256 _from_block, uint256 _to) public view returns (uint256) {\r\n        uint256 _from = _from_block >= farmInfo.startBlock ? _from_block : farmInfo.startBlock;\r\n        uint256 to = farmInfo.endBlock > _to ? _to : farmInfo.endBlock;\r\n        if (to <= farmInfo.bonusEndBlock) {\r\n            return to.sub(_from).mul(farmInfo.bonus);\r\n        } else if (_from >= farmInfo.bonusEndBlock) {\r\n            return to.sub(_from);\r\n        } else {\r\n            return farmInfo.bonusEndBlock.sub(_from).mul(farmInfo.bonus).add(\r\n                to.sub(farmInfo.bonusEndBlock)\r\n            );\r\n        }\r\n    }\r\n\r\n    /**\r\n     * @notice function to see accumulated balance of reward token for specified user\r\n     * @param _user the user for whom unclaimed tokens will be shown\r\n     * @return total amount of withdrawable reward tokens\r\n     */\r\n    function pendingReward(address _user) external view returns (uint256) {\r\n        UserInfo storage user = userInfo[_user];\r\n        uint256 accRewardPerShare = farmInfo.accRewardPerShare;\r\n        uint256 lpSupply = farmInfo.lpToken.balanceOf(address(this));\r\n        if (block.number > farmInfo.lastRewardBlock && lpSupply != 0) {\r\n            uint256 multiplier = getMultiplier(farmInfo.lastRewardBlock, block.number);\r\n            uint256 tokenReward = multiplier.mul(farmInfo.blockReward);\r\n            accRewardPerShare = accRewardPerShare.add(tokenReward.mul(1e12).div(lpSupply));\r\n        }\r\n        return user.amount.mul(accRewardPerShare).div(1e12).sub(user.rewardDebt);\r\n    }\r\n\r\n    /**\r\n     * @notice updates pool information to be up to date to the current block\r\n     */\r\n    function updatePool() public {\r\n        if (block.number <= farmInfo.lastRewardBlock) {\r\n            return;\r\n        }\r\n        uint256 lpSupply = farmInfo.lpToken.balanceOf(address(this));\r\n        if (lpSupply == 0) {\r\n            farmInfo.lastRewardBlock = block.number < farmInfo.endBlock ? block.number : farmInfo.endBlock;\r\n            return;\r\n        }\r\n        uint256 multiplier = getMultiplier(farmInfo.lastRewardBlock, block.number);\r\n        uint256 tokenReward = multiplier.mul(farmInfo.blockReward);\r\n        farmInfo.accRewardPerShare = farmInfo.accRewardPerShare.add(tokenReward.mul(1e12).div(lpSupply));\r\n        farmInfo.lastRewardBlock = block.number < farmInfo.endBlock ? block.number : farmInfo.endBlock;\r\n    }\r\n    \r\n    /**\r\n     * @notice deposit LP token function for msg.sender\r\n     * @param _amount the total deposit amount\r\n     */\r\n    function deposit(uint256 _amount) public {\r\n        UserInfo storage user = userInfo[msg.sender];\r\n        updatePool();\r\n        if (user.amount > 0) {\r\n            uint256 pending = user.amount.mul(farmInfo.accRewardPerShare).div(1e12).sub(user.rewardDebt);\r\n            safeRewardTransfer(msg.sender, pending);\r\n        }\r\n        if (user.amount == 0 && _amount > 0) {\r\n            factory.userEnteredFarm(msg.sender);\r\n            farmInfo.numFarmers++;\r\n        }\r\n        farmInfo.lpToken.safeTransferFrom(address(msg.sender), address(this), _amount);\r\n        user.amount = user.amount.add(_amount);\r\n        user.rewardDebt = user.amount.mul(farmInfo.accRewardPerShare).div(1e12);\r\n        emit Deposit(msg.sender, _amount);\r\n    }\r\n\r\n    /**\r\n     * @notice withdraw LP token function for msg.sender\r\n     * @param _amount the total withdrawable amount\r\n     */\r\n    function withdraw(uint256 _amount) public {\r\n        UserInfo storage user = userInfo[msg.sender];\r\n        require(user.amount >= _amount, \"INSUFFICIENT\");\r\n        updatePool();\r\n        if (user.amount == _amount && _amount > 0) {\r\n            factory.userLeftFarm(msg.sender);\r\n            farmInfo.numFarmers--;\r\n        }\r\n        uint256 pending = user.amount.mul(farmInfo.accRewardPerShare).div(1e12).sub(user.rewardDebt);\r\n        safeRewardTransfer(msg.sender, pending);\r\n        user.amount = user.amount.sub(_amount);\r\n        user.rewardDebt = user.amount.mul(farmInfo.accRewardPerShare).div(1e12);\r\n        farmInfo.lpToken.safeTransfer(address(msg.sender), _amount);\r\n        emit Withdraw(msg.sender, _amount);\r\n    }\r\n\r\n    /**\r\n     * @notice emergency functoin to withdraw LP tokens and forego harvest rewards. Important to protect users LP tokens\r\n     */\r\n    function emergencyWithdraw() public {\r\n        UserInfo storage user = userInfo[msg.sender];\r\n        farmInfo.lpToken.safeTransfer(address(msg.sender), user.amount);\r\n        emit EmergencyWithdraw(msg.sender, user.amount);\r\n        if (user.amount > 0) {\r\n            factory.userLeftFarm(msg.sender);\r\n            farmInfo.numFarmers--;\r\n        }\r\n        user.amount = 0;\r\n        user.rewardDebt = 0;\r\n    }\r\n\r\n    /**\r\n     * @notice Safe reward transfer function, just in case a rounding error causes pool to not have enough reward tokens\r\n     * @param _to the user address to transfer tokens to\r\n     * @param _amount the total amount of tokens to transfer\r\n     */\r\n    function safeRewardTransfer(address _to, uint256 _amount) internal {\r\n        uint256 rewardBal = farmInfo.rewardToken.balanceOf(address(this));\r\n        if (_amount > rewardBal) {\r\n            farmInfo.rewardToken.transfer(_to, rewardBal);\r\n        } else {\r\n            farmInfo.rewardToken.transfer(_to, _amount);\r\n        }\r\n    }\r\n}\r\n\r\n// File: Context.sol\r\n\r\n\r\n\r\n// From https://github.com/OpenZeppelin/openzeppelin-contracts/blob/master/contracts/GSN/Context.sol\r\n// Subject to the MIT license.\r\n\r\npragma solidity ^0.6.0;\r\n\r\n/*\r\n * @dev Provides information about the current execution context, including the\r\n * sender of the transaction and its data. While these are generally available\r\n * via msg.sender and msg.data, they should not be accessed in such a direct\r\n * manner, since when dealing with GSN meta-transactions the account sending and\r\n * paying for execution may not be the actual sender (as far as an application\r\n * is concerned).\r\n *\r\n * This contract is only required for intermediate, library-like contracts.\r\n */\r\nabstract contract Context {\r\n    function _msgSender() internal view virtual returns (address payable) {\r\n        return msg.sender;\r\n    }\r\n\r\n    function _msgData() internal view virtual returns (bytes memory) {\r\n        this; // silence state mutability warning without generating bytecode - see https://github.com/ethereum/solidity/issues/2691\r\n        return msg.data;\r\n    }\r\n}\r\n\r\n// File: Ownable.sol\r\n\r\n\r\n\r\n// From https://github.com/OpenZeppelin/openzeppelin-contracts/blob/master/contracts/access/Ownable.sol\r\n// Subject to the MIT license.\r\n\r\npragma solidity ^0.6.0;\r\n\r\n/**\r\n * @dev Contract module which provides a basic access control mechanism, where\r\n * there is an account (an owner) that can be granted exclusive access to\r\n * specific functions.\r\n *\r\n * By default, the owner account will be the one that deploys the contract. This\r\n * can later be changed with {transferOwnership}.\r\n *\r\n * This module is used through inheritance. It will make available the modifier\r\n * `onlyOwner`, which can be applied to your functions to restrict their use to\r\n * the owner.\r\n */\r\ncontract Ownable is Context {\r\n    address private _owner;\r\n\r\n    event OwnershipTransferred(address indexed previousOwner, address indexed newOwner);\r\n\r\n    /**\r\n     * @dev Initializes the contract setting the deployer as the initial owner.\r\n     */\r\n    constructor () internal {\r\n        address msgSender = _msgSender();\r\n        _owner = msgSender;\r\n        emit OwnershipTransferred(address(0), msgSender);\r\n    }\r\n\r\n    /**\r\n     * @dev Returns the address of the current owner.\r\n     */\r\n    function owner() public view returns (address) {\r\n        return _owner;\r\n    }\r\n\r\n    /**\r\n     * @dev Throws if called by any account other than the owner.\r\n     */\r\n    modifier onlyOwner() {\r\n        require(_owner == _msgSender(), \"Ownable: caller is not the owner\");\r\n        _;\r\n    }\r\n\r\n    /**\r\n     * @dev Leaves the contract without owner. It will not be possible to call\r\n     * `onlyOwner` functions anymore. Can only be called by the current owner.\r\n     *\r\n     * NOTE: Renouncing ownership will leave the contract without an owner,\r\n     * thereby removing any functionality that is only available to the owner.\r\n     */\r\n    function renounceOwnership() public virtual onlyOwner {\r\n        emit OwnershipTransferred(_owner, address(0));\r\n        _owner = address(0);\r\n    }\r\n\r\n    /**\r\n     * @dev Transfers ownership of the contract to a new account (`newOwner`).\r\n     * Can only be called by the current owner.\r\n     */\r\n    function transferOwnership(address newOwner) public virtual onlyOwner {\r\n        require(newOwner != address(0), \"Ownable: new owner is the zero address\");\r\n        emit OwnershipTransferred(_owner, newOwner);\r\n        _owner = newOwner;\r\n    }\r\n}\r\n\r\n// File: FarmGenerator01.sol\r\n\r\n\r\n\r\n// Ideally this contract should not be interacted with directly. Use our front end Dapp to create a farm\r\n// to ensure the most effeicient amount of tokens are sent to the contract\r\n\r\npragma solidity 0.6.12;\r\n\r\n\r\n\r\n\r\n\r\n\r\ninterface IERCBurn {\r\n    function burn(uint256 _amount) external;\r\n    function approve(address spender, uint256 amount) external returns (bool);\r\n    function allowance(address owner, address spender) external returns (uint256);\r\n}\r\n\r\ninterface FarmFactory {\r\n    function registerFarm (address _farmAddress) external;\r\n}\r\n\r\ninterface IUniFactory {\r\n    function getPair(address tokenA, address tokenB) external view returns (address);\r\n}\r\n\r\ninterface IUniswapV2Pair {\r\n    event Approval(address indexed owner, address indexed spender, uint value);\r\n    event Transfer(address indexed from, address indexed to, uint value);\r\n\r\n    function name() external pure returns (string memory);\r\n    function symbol() external pure returns (string memory);\r\n    function decimals() external pure returns (uint8);\r\n    function totalSupply() external view returns (uint);\r\n    function balanceOf(address owner) external view returns (uint);\r\n    function allowance(address owner, address spender) external view returns (uint);\r\n\r\n    function approve(address spender, uint value) external returns (bool);\r\n    function transfer(address to, uint value) external returns (bool);\r\n    function transferFrom(address from, address to, uint value) external returns (bool);\r\n\r\n    function DOMAIN_SEPARATOR() external view returns (bytes32);\r\n    function PERMIT_TYPEHASH() external pure returns (bytes32);\r\n    function nonces(address owner) external view returns (uint);\r\n\r\n    function permit(address owner, address spender, uint value, uint deadline, uint8 v, bytes32 r, bytes32 s) external;\r\n\r\n    event Mint(address indexed sender, uint amount0, uint amount1);\r\n    event Burn(address indexed sender, uint amount0, uint amount1, address indexed to);\r\n    event Swap(\r\n        address indexed sender,\r\n        uint amount0In,\r\n        uint amount1In,\r\n        uint amount0Out,\r\n        uint amount1Out,\r\n        address indexed to\r\n    );\r\n    event Sync(uint112 reserve0, uint112 reserve1);\r\n\r\n    function MINIMUM_LIQUIDITY() external pure returns (uint);\r\n    function factory() external view returns (address);\r\n    function token0() external view returns (address);\r\n    function token1() external view returns (address);\r\n    function getReserves() external view returns (uint112 reserve0, uint112 reserve1, uint32 blockTimestampLast);\r\n    function price0CumulativeLast() external view returns (uint);\r\n    function price1CumulativeLast() external view returns (uint);\r\n    function kLast() external view returns (uint);\r\n\r\n    function mint(address to) external returns (uint liquidity);\r\n    function burn(address to) external returns (uint amount0, uint amount1);\r\n    function swap(uint amount0Out, uint amount1Out, address to, bytes calldata data) external;\r\n    function skim(address to) external;\r\n    function sync() external;\r\n\r\n    function initialize(address, address) external;\r\n}\r\n\r\ncontract FarmGenerator01 is Ownable {\r\n    using SafeMath for uint256;\r\n    \r\n    FarmFactory public factory;\r\n    IUniFactory public uniswapFactory;\r\n    \r\n    address payable devaddr;\r\n    \r\n    struct FeeStruct {\r\n        IERCBurn gasToken;\r\n        bool useGasToken; // set to false to waive the gas fee\r\n        uint256 gasFee; // the total amount of gas tokens to be burnt (if used)\r\n        uint256 ethFee; // Small eth fee to prevent spam on the platform\r\n        uint256 tokenFee; // Divided by 1000, fee on farm rewards\r\n    }\r\n    \r\n    FeeStruct public gFees;\r\n    \r\n    struct FarmParameters {\r\n        uint256 fee;\r\n        uint256 amountMinusFee;\r\n        uint256 bonusBlocks;\r\n        uint256 totalBonusReward;\r\n        uint256 numBlocks;\r\n        uint256 endBlock;\r\n        uint256 requiredAmount;\r\n        uint256 amountFee;\r\n    }\r\n    \r\n    constructor(FarmFactory _factory, IUniFactory _uniswapFactory) public {\r\n        factory = _factory;\r\n        devaddr = msg.sender;\r\n        gFees.useGasToken = false;\r\n        gFees.gasFee = 1 * (10 ** 18);\r\n        gFees.ethFee = 2e17;\r\n        gFees.tokenFee = 10; // 1%\r\n        uniswapFactory = _uniswapFactory;\r\n    }\r\n    \r\n    /**\r\n     * @notice Below are self descriptive gas fee and general settings functions\r\n     */\r\n    function setGasToken (IERCBurn _gasToken) public onlyOwner {\r\n        gFees.gasToken = _gasToken;\r\n    }\r\n    \r\n    function setGasFee (uint256 _amount) public onlyOwner {\r\n        gFees.gasFee = _amount;\r\n    }\r\n    \r\n    function setEthFee (uint256 _amount) public onlyOwner {\r\n        gFees.ethFee = _amount;\r\n    }\r\n    \r\n    function setTokenFee (uint256 _amount) public onlyOwner {\r\n        gFees.tokenFee = _amount;\r\n    }\r\n    \r\n    function setRequireGasToken (bool _useGasToken) public onlyOwner {\r\n        gFees.useGasToken = _useGasToken;\r\n    }\r\n    \r\n    function setDev(address payable _devaddr) public onlyOwner {\r\n        devaddr = _devaddr;\r\n    }\r\n    \r\n    /**\r\n     * @notice Determine the endBlock based on inputs. Used on the front end to show the exact settings the Farm contract will be deployed with\r\n     */\r\n    function determineEndBlock (uint256 _amount, uint256 _blockReward, uint256 _startBlock, uint256 _bonusEndBlock, uint256 _bonus) public view returns (uint256, uint256, uint256) {\r\n        FarmParameters memory params;\r\n        params.fee = _amount.mul(gFees.tokenFee).div(1000);\r\n        params.amountMinusFee = _amount.sub(params.fee);\r\n        params.bonusBlocks = _bonusEndBlock.sub(_startBlock);\r\n        params.totalBonusReward = params.bonusBlocks.mul(_bonus).mul(_blockReward);\r\n        params.numBlocks = params.amountMinusFee.sub(params.totalBonusReward).div(_blockReward);\r\n        params.endBlock = params.numBlocks.add(params.bonusBlocks).add(_startBlock);\r\n        \r\n        uint256 nonBonusBlocks = params.endBlock.sub(_bonusEndBlock);\r\n        uint256 effectiveBlocks = params.bonusBlocks.mul(_bonus).add(nonBonusBlocks);\r\n        uint256 requiredAmount = _blockReward.mul(effectiveBlocks);\r\n        return (params.endBlock, requiredAmount, requiredAmount.mul(gFees.tokenFee).div(1000));\r\n    }\r\n    \r\n    /**\r\n     * @notice Determine the blockReward based on inputs specifying an end date. Used on the front end to show the exact settings the Farm contract will be deployed with\r\n     */\r\n    function determineBlockReward (uint256 _amount, uint256 _startBlock, uint256 _bonusEndBlock, uint256 _bonus, uint256 _endBlock) public view returns (uint256, uint256, uint256) {\r\n        uint256 fee = _amount.mul(gFees.tokenFee).div(1000);\r\n        uint256 amountMinusFee = _amount.sub(fee);\r\n        uint256 bonusBlocks = _bonusEndBlock.sub(_startBlock);\r\n        uint256 nonBonusBlocks = _endBlock.sub(_bonusEndBlock);\r\n        uint256 effectiveBlocks = bonusBlocks.mul(_bonus).add(nonBonusBlocks);\r\n        uint256 blockReward = amountMinusFee.div(effectiveBlocks);\r\n        uint256 requiredAmount = blockReward.mul(effectiveBlocks);\r\n        return (blockReward, requiredAmount, requiredAmount.mul(gFees.tokenFee).div(1000));\r\n    }\r\n    \r\n    /**\r\n     * @notice Creates a new Farm contract and registers it in the FarmFactory.sol. All farming rewards are locked in the Farm Contract\r\n     */\r\n    function createFarm (IERC20 _rewardToken, uint256 _amount, IERC20 _lpToken, uint256 _blockReward, uint256 _startBlock, uint256 _bonusEndBlock, uint256 _bonus) public payable returns (address) {\r\n        require(_startBlock > block.number, 'START'); // ideally at least 24 hours more to give farmers time\r\n        require(_bonus > 0, 'BONUS');\r\n        require(address(_rewardToken) != address(0), 'TOKEN');\r\n        require(_blockReward > 1000, 'BR'); // minimum 1000 divisibility per block reward\r\n        \r\n        // ensure this pair is on uniswap by querying the factory\r\n        IUniswapV2Pair lpair = IUniswapV2Pair(address(_lpToken));\r\n        address factoryPairAddress = uniswapFactory.getPair(lpair.token0(), lpair.token1());\r\n        require(factoryPairAddress == address(_lpToken), 'This pair is not on uniswap');\r\n        \r\n        FarmParameters memory params;\r\n        (params.endBlock, params.requiredAmount, params.amountFee) = determineEndBlock(_amount, _blockReward, _startBlock, _bonusEndBlock, _bonus);\r\n        \r\n        require(msg.value == gFees.ethFee, 'Fee not met');\r\n        devaddr.transfer(msg.value);\r\n        \r\n        if (gFees.useGasToken) {\r\n            TransferHelper.safeTransferFrom(address(gFees.gasToken), address(msg.sender), address(this), gFees.gasFee);\r\n            gFees.gasToken.burn(gFees.gasFee);\r\n        }\r\n        \r\n        TransferHelper.safeTransferFrom(address(_rewardToken), address(msg.sender), address(this), params.requiredAmount.add(params.amountFee));\r\n        Farm01 newFarm = new Farm01(address(factory), address(this));\r\n        TransferHelper.safeApprove(address(_rewardToken), address(newFarm), params.requiredAmount);\r\n        newFarm.init(_rewardToken, params.requiredAmount, _lpToken, _blockReward, _startBlock, params.endBlock, _bonusEndBlock, _bonus);\r\n        \r\n        TransferHelper.safeTransfer(address(_rewardToken), devaddr, params.amountFee);\r\n        factory.registerFarm(address(newFarm));\r\n        return (address(newFarm));\r\n    }\r\n    \r\n}",
  "sourcePath": "C:/Users/Cyber World/Desktop/cryptochrome/contracts/generator.sol",
  "compiler": {
    "name": "solc",
    "version": "0.6.12+commit.27d51765.Emscripten.clang"
  },
  "schemaVersion": "3.3.2",
  "updatedAt": "2020-12-05T10:36:21.461Z",
  "devdoc": {
    "kind": "dev",
    "methods": {
      "deposit(uint256)": {
        "params": {
          "_amount": "the total deposit amount"
        }
      },
      "getMultiplier(uint256,uint256)": {
        "params": {
          "_from_block": "the start of the period to measure rewards for",
          "_to": "the end of the period to measure rewards for"
        },
        "returns": {
          "_0": "The weighted multiplier for the given period"
        }
      },
      "pendingReward(address)": {
        "params": {
          "_user": "the user for whom unclaimed tokens will be shown"
        },
        "returns": {
          "_0": "total amount of withdrawable reward tokens"
        }
      },
      "withdraw(uint256)": {
        "params": {
          "_amount": "the total withdrawable amount"
        }
      }
    },
    "version": 1
  },
  "userdoc": {
    "kind": "user",
    "methods": {
      "deposit(uint256)": {
        "notice": "deposit LP token function for msg.sender"
      },
      "emergencyWithdraw()": {
        "notice": "emergency functoin to withdraw LP tokens and forego harvest rewards. Important to protect users LP tokens"
      },
      "farmType()": {
        "notice": "farm type id. Useful for back-end systems to know how to read the contract (ABI) as we plan to launch multiple farm types"
      },
      "getMultiplier(uint256,uint256)": {
        "notice": "Gets the reward multiplier over the given _from_block until _to block"
      },
      "init(address,uint256,address,uint256,uint256,uint256,uint256,uint256)": {
        "notice": "initialize the farming contract. This is called only once upon farm creation and the FarmGenerator ensures the farm has the correct paramaters"
      },
      "pendingReward(address)": {
        "notice": "function to see accumulated balance of reward token for specified user"
      },
      "updatePool()": {
        "notice": "updates pool information to be up to date to the current block"
      },
      "userInfo(address)": {
        "notice": "information on each user than stakes LP tokens"
      },
      "withdraw(uint256)": {
        "notice": "withdraw LP token function for msg.sender"
      }
    },
    "version": 1
  }
}